{
  "_format": "hh-sol-artifact-1",
  "contractName": "Marketplace",
  "sourceName": "contracts/Marketplace.sol",
  "abi": [
    {
      "anonymous": false,
      "inputs": [
        {
          "indexed": false,
          "internalType": "address",
          "name": "beneficiary",
          "type": "address"
        },
        {
          "indexed": false,
          "internalType": "uint256",
          "name": "amount",
          "type": "uint256"
        }
      ],
      "name": "FundsSent",
      "type": "event"
    },
    {
      "anonymous": false,
      "inputs": [
        {
          "components": [
            {
              "internalType": "address",
              "name": "renter",
              "type": "address"
            },
            {
              "internalType": "uint256",
              "name": "startRentalDate",
              "type": "uint256"
            },
            {
              "internalType": "uint256",
              "name": "endRentalDate",
              "type": "uint256"
            },
            {
              "internalType": "uint256",
              "name": "earningIndex",
              "type": "uint256"
            },
            {
              "internalType": "uint256",
              "name": "feesIndex",
              "type": "uint256"
            }
          ],
          "indexed": false,
          "internalType": "struct Marketplace.Booking",
          "name": "booking",
          "type": "tuple"
        }
      ],
      "name": "NFTBooked",
      "type": "event"
    },
    {
      "anonymous": false,
      "inputs": [
        {
          "components": [
            {
              "internalType": "address",
              "name": "lender",
              "type": "address"
            },
            {
              "components": [
                {
                  "internalType": "address",
                  "name": "tokenContract",
                  "type": "address"
                },
                {
                  "internalType": "uint256",
                  "name": "tokenId",
                  "type": "uint256"
                }
              ],
              "internalType": "struct Marketplace.NFT",
              "name": "nft",
              "type": "tuple"
            },
            {
              "internalType": "uint256",
              "name": "pricePerDay",
              "type": "uint256"
            },
            {
              "internalType": "uint256",
              "name": "minRentalDays",
              "type": "uint256"
            },
            {
              "internalType": "uint256",
              "name": "maxRentalDays",
              "type": "uint256"
            }
          ],
          "indexed": false,
          "internalType": "struct Marketplace.Listing",
          "name": "listing",
          "type": "tuple"
        }
      ],
      "name": "NFTListed",
      "type": "event"
    },
    {
      "anonymous": false,
      "inputs": [
        {
          "components": [
            {
              "internalType": "address",
              "name": "renter",
              "type": "address"
            },
            {
              "internalType": "uint256",
              "name": "startRentalDate",
              "type": "uint256"
            },
            {
              "internalType": "uint256",
              "name": "endRentalDate",
              "type": "uint256"
            },
            {
              "internalType": "uint256",
              "name": "earningIndex",
              "type": "uint256"
            },
            {
              "internalType": "uint256",
              "name": "feesIndex",
              "type": "uint256"
            }
          ],
          "indexed": false,
          "internalType": "struct Marketplace.Booking",
          "name": "booking",
          "type": "tuple"
        }
      ],
      "name": "NFTRentingStarted",
      "type": "event"
    },
    {
      "anonymous": false,
      "inputs": [
        {
          "components": [
            {
              "internalType": "address",
              "name": "renter",
              "type": "address"
            },
            {
              "internalType": "uint256",
              "name": "startRentalDate",
              "type": "uint256"
            },
            {
              "internalType": "uint256",
              "name": "endRentalDate",
              "type": "uint256"
            },
            {
              "internalType": "uint256",
              "name": "earningIndex",
              "type": "uint256"
            },
            {
              "internalType": "uint256",
              "name": "feesIndex",
              "type": "uint256"
            }
          ],
          "indexed": false,
          "internalType": "struct Marketplace.Booking[]",
          "name": "bookings",
          "type": "tuple[]"
        }
      ],
      "name": "NFTUnbooked",
      "type": "event"
    },
    {
      "anonymous": false,
      "inputs": [
        {
          "components": [
            {
              "internalType": "address",
              "name": "lender",
              "type": "address"
            },
            {
              "components": [
                {
                  "internalType": "address",
                  "name": "tokenContract",
                  "type": "address"
                },
                {
                  "internalType": "uint256",
                  "name": "tokenId",
                  "type": "uint256"
                }
              ],
              "internalType": "struct Marketplace.NFT",
              "name": "nft",
              "type": "tuple"
            },
            {
              "internalType": "uint256",
              "name": "pricePerDay",
              "type": "uint256"
            },
            {
              "internalType": "uint256",
              "name": "minRentalDays",
              "type": "uint256"
            },
            {
              "internalType": "uint256",
              "name": "maxRentalDays",
              "type": "uint256"
            }
          ],
          "indexed": false,
          "internalType": "struct Marketplace.Listing",
          "name": "listing",
          "type": "tuple"
        }
      ],
      "name": "NFTUnlisted",
      "type": "event"
    },
    {
      "anonymous": false,
      "inputs": [
        {
          "indexed": true,
          "internalType": "address",
          "name": "previousOwner",
          "type": "address"
        },
        {
          "indexed": true,
          "internalType": "address",
          "name": "newOwner",
          "type": "address"
        }
      ],
      "name": "OwnershipTransferred",
      "type": "event"
    },
    {
      "inputs": [
        {
          "internalType": "address",
          "name": "",
          "type": "address"
        },
        {
          "internalType": "uint256",
          "name": "",
          "type": "uint256"
        }
      ],
      "name": "EarningsByUser",
      "outputs": [
        {
          "internalType": "uint256",
          "name": "amount",
          "type": "uint256"
        },
        {
          "internalType": "uint256",
          "name": "redeemableDate",
          "type": "uint256"
        },
        {
          "internalType": "bool",
          "name": "cancelled",
          "type": "bool"
        },
        {
          "internalType": "bool",
          "name": "redeemed",
          "type": "bool"
        }
      ],
      "stateMutability": "view",
      "type": "function"
    },
    {
      "inputs": [
        {
          "internalType": "address",
          "name": "",
          "type": "address"
        }
      ],
      "name": "RefundByUser",
      "outputs": [
        {
          "internalType": "uint256",
          "name": "",
          "type": "uint256"
        }
      ],
      "stateMutability": "view",
      "type": "function"
    },
    {
      "inputs": [
        {
          "internalType": "address",
          "name": "_nftContract",
          "type": "address"
        },
        {
          "internalType": "uint256",
          "name": "_nftId",
          "type": "uint256"
        },
        {
          "internalType": "uint256",
          "name": "_startRentalDate",
          "type": "uint256"
        },
        {
          "internalType": "uint256",
          "name": "_endRentalDate",
          "type": "uint256"
        }
      ],
      "name": "bookNFT",
      "outputs": [],
      "stateMutability": "payable",
      "type": "function"
    },
    {
      "inputs": [
        {
          "internalType": "address",
          "name": "_nftContract",
          "type": "address"
        },
        {
          "internalType": "uint256",
          "name": "_nftId",
          "type": "uint256"
        },
        {
          "internalType": "uint256",
          "name": "_startRentalDate",
          "type": "uint256"
        },
        {
          "internalType": "uint256",
          "name": "_endRentalDate",
          "type": "uint256"
        }
      ],
      "name": "checkIsAvailable",
      "outputs": [
        {
          "internalType": "bool",
          "name": "",
          "type": "bool"
        }
      ],
      "stateMutability": "view",
      "type": "function"
    },
    {
      "inputs": [],
      "name": "getAllListings",
      "outputs": [
        {
          "components": [
            {
              "internalType": "address",
              "name": "lender",
              "type": "address"
            },
            {
              "components": [
                {
                  "internalType": "address",
                  "name": "tokenContract",
                  "type": "address"
                },
                {
                  "internalType": "uint256",
                  "name": "tokenId",
                  "type": "uint256"
                }
              ],
              "internalType": "struct Marketplace.NFT",
              "name": "nft",
              "type": "tuple"
            },
            {
              "internalType": "uint256",
              "name": "pricePerDay",
              "type": "uint256"
            },
            {
              "internalType": "uint256",
              "name": "minRentalDays",
              "type": "uint256"
            },
            {
              "internalType": "uint256",
              "name": "maxRentalDays",
              "type": "uint256"
            }
          ],
          "internalType": "struct Marketplace.Listing[]",
          "name": "",
          "type": "tuple[]"
        }
      ],
      "stateMutability": "view",
      "type": "function"
    },
    {
      "inputs": [
        {
          "internalType": "address",
          "name": "_nftContract",
          "type": "address"
        },
        {
          "internalType": "uint256",
          "name": "_nftId",
          "type": "uint256"
        }
      ],
      "name": "getBookings",
      "outputs": [
        {
          "components": [
            {
              "internalType": "address",
              "name": "renter",
              "type": "address"
            },
            {
              "internalType": "uint256",
              "name": "startRentalDate",
              "type": "uint256"
            },
            {
              "internalType": "uint256",
              "name": "endRentalDate",
              "type": "uint256"
            },
            {
              "internalType": "uint256",
              "name": "earningIndex",
              "type": "uint256"
            },
            {
              "internalType": "uint256",
              "name": "feesIndex",
              "type": "uint256"
            }
          ],
          "internalType": "struct Marketplace.Booking[]",
          "name": "",
          "type": "tuple[]"
        }
      ],
      "stateMutability": "view",
      "type": "function"
    },
    {
      "inputs": [],
      "name": "getListedCollections",
      "outputs": [
        {
          "internalType": "address[]",
          "name": "",
          "type": "address[]"
        }
      ],
      "stateMutability": "view",
      "type": "function"
    },
    {
      "inputs": [
        {
          "internalType": "address",
          "name": "_nftContract",
          "type": "address"
        }
      ],
      "name": "getListedNftsByCollection",
      "outputs": [
        {
          "internalType": "uint256[]",
          "name": "",
          "type": "uint256[]"
        }
      ],
      "stateMutability": "view",
      "type": "function"
    },
    {
      "inputs": [
        {
          "internalType": "address",
          "name": "_nftContract",
          "type": "address"
        },
        {
          "internalType": "uint256",
          "name": "_nftId",
          "type": "uint256"
        }
      ],
      "name": "getListing",
      "outputs": [
        {
          "components": [
            {
              "internalType": "address",
              "name": "lender",
              "type": "address"
            },
            {
              "components": [
                {
                  "internalType": "address",
                  "name": "tokenContract",
                  "type": "address"
                },
                {
                  "internalType": "uint256",
                  "name": "tokenId",
                  "type": "uint256"
                }
              ],
              "internalType": "struct Marketplace.NFT",
              "name": "nft",
              "type": "tuple"
            },
            {
              "internalType": "uint256",
              "name": "pricePerDay",
              "type": "uint256"
            },
            {
              "internalType": "uint256",
              "name": "minRentalDays",
              "type": "uint256"
            },
            {
              "internalType": "uint256",
              "name": "maxRentalDays",
              "type": "uint256"
            }
          ],
          "internalType": "struct Marketplace.Listing",
          "name": "",
          "type": "tuple"
        }
      ],
      "stateMutability": "view",
      "type": "function"
    },
    {
      "inputs": [],
      "name": "getMyBookings",
      "outputs": [
        {
          "components": [
            {
              "internalType": "address",
              "name": "renter",
              "type": "address"
            },
            {
              "internalType": "uint256",
              "name": "startRentalDate",
              "type": "uint256"
            },
            {
              "internalType": "uint256",
              "name": "endRentalDate",
              "type": "uint256"
            },
            {
              "internalType": "uint256",
              "name": "earningIndex",
              "type": "uint256"
            },
            {
              "internalType": "uint256",
              "name": "feesIndex",
              "type": "uint256"
            }
          ],
          "internalType": "struct Marketplace.Booking[]",
          "name": "",
          "type": "tuple[]"
        }
      ],
      "stateMutability": "view",
      "type": "function"
    },
    {
      "inputs": [],
      "name": "getMyEarnings",
      "outputs": [
        {
          "components": [
            {
              "internalType": "uint256",
              "name": "amount",
              "type": "uint256"
            },
            {
              "internalType": "uint256",
              "name": "redeemableDate",
              "type": "uint256"
            },
            {
              "internalType": "bool",
              "name": "cancelled",
              "type": "bool"
            },
            {
              "internalType": "bool",
              "name": "redeemed",
              "type": "bool"
            }
          ],
          "internalType": "struct Marketplace.Earning[]",
          "name": "",
          "type": "tuple[]"
        }
      ],
      "stateMutability": "view",
      "type": "function"
    },
    {
      "inputs": [],
      "name": "getMyListings",
      "outputs": [
        {
          "components": [
            {
              "internalType": "address",
              "name": "lender",
              "type": "address"
            },
            {
              "components": [
                {
                  "internalType": "address",
                  "name": "tokenContract",
                  "type": "address"
                },
                {
                  "internalType": "uint256",
                  "name": "tokenId",
                  "type": "uint256"
                }
              ],
              "internalType": "struct Marketplace.NFT",
              "name": "nft",
              "type": "tuple"
            },
            {
              "internalType": "uint256",
              "name": "pricePerDay",
              "type": "uint256"
            },
            {
              "internalType": "uint256",
              "name": "minRentalDays",
              "type": "uint256"
            },
            {
              "internalType": "uint256",
              "name": "maxRentalDays",
              "type": "uint256"
            }
          ],
          "internalType": "struct Marketplace.Listing[]",
          "name": "",
          "type": "tuple[]"
        }
      ],
      "stateMutability": "view",
      "type": "function"
    },
    {
      "inputs": [],
      "name": "getMyRefund",
      "outputs": [
        {
          "internalType": "uint256",
          "name": "",
          "type": "uint256"
        }
      ],
      "stateMutability": "view",
      "type": "function"
    },
    {
      "inputs": [],
      "name": "getRentingFees",
      "outputs": [
        {
          "internalType": "uint256",
          "name": "",
          "type": "uint256"
        }
      ],
      "stateMutability": "view",
      "type": "function"
    },
    {
      "inputs": [
        {
          "internalType": "address",
          "name": "_nftContract",
          "type": "address"
        },
        {
          "internalType": "uint256",
          "name": "_nftId",
          "type": "uint256"
        },
        {
          "internalType": "uint256",
          "name": "_pricePerDay",
          "type": "uint256"
        },
        {
          "internalType": "uint256",
          "name": "_minRentalDays",
          "type": "uint256"
        },
        {
          "internalType": "uint256",
          "name": "_maxRentalDays",
          "type": "uint256"
        }
      ],
      "name": "listNFT",
      "outputs": [],
      "stateMutability": "nonpayable",
      "type": "function"
    },
    {
      "inputs": [
        {
          "internalType": "address",
          "name": "_operator",
          "type": "address"
        },
        {
          "internalType": "address",
          "name": "_from",
          "type": "address"
        },
        {
          "internalType": "uint256",
          "name": "_tokenId",
          "type": "uint256"
        },
        {
          "internalType": "bytes",
          "name": "_data",
          "type": "bytes"
        }
      ],
      "name": "onERC721Received",
      "outputs": [
        {
          "internalType": "bytes4",
          "name": "value",
          "type": "bytes4"
        }
      ],
      "stateMutability": "view",
      "type": "function"
    },
    {
      "inputs": [],
      "name": "owner",
      "outputs": [
        {
          "internalType": "address",
          "name": "",
          "type": "address"
        }
      ],
      "stateMutability": "view",
      "type": "function"
    },
    {
      "inputs": [],
      "name": "redeemEarnings",
      "outputs": [],
      "stateMutability": "nonpayable",
      "type": "function"
    },
    {
      "inputs": [],
      "name": "redeemRefund",
      "outputs": [],
      "stateMutability": "nonpayable",
      "type": "function"
    },
    {
      "inputs": [],
      "name": "renounceOwnership",
      "outputs": [],
      "stateMutability": "nonpayable",
      "type": "function"
    },
    {
      "inputs": [
        {
          "internalType": "address",
          "name": "_nftContract",
          "type": "address"
        },
        {
          "internalType": "uint256",
          "name": "_nftId",
          "type": "uint256"
        }
      ],
      "name": "startRentingNFT",
      "outputs": [],
      "stateMutability": "nonpayable",
      "type": "function"
    },
    {
      "inputs": [
        {
          "internalType": "address",
          "name": "newOwner",
          "type": "address"
        }
      ],
      "name": "transferOwnership",
      "outputs": [],
      "stateMutability": "nonpayable",
      "type": "function"
    },
    {
      "inputs": [
        {
          "internalType": "address",
          "name": "_nftContract",
          "type": "address"
        },
        {
          "internalType": "uint256",
          "name": "_nftId",
          "type": "uint256"
        }
      ],
      "name": "unlistNFT",
      "outputs": [],
      "stateMutability": "nonpayable",
      "type": "function"
    }
  ],
  "bytecode": "0x6080604052600560025534801562000015575f80fd5b5062000021336200002b565b600180556200007a565b5f80546001600160a01b038381166001600160a01b0319831681178455604051919092169283917f8be0079c531659141344cd1fd0a4f28419497f9722a3daafe3b4186f6b6457e09190a35050565b61397f80620000885f395ff3fe608060405260043610610177575f3560e01c80637e943afd116100d1578063ae73ccec1161007c578063e363b20411610057578063e363b2041461044d578063eea4c50a14610479578063f2fde38b1461049a575f80fd5b8063ae73ccec14610406578063b019661e1461041a578063d02417431461042e575f80fd5b806388700d1c116100ac57806388700d1c146103955780638da5cb5b146103c15780638ff33870146103e7575f80fd5b80637e943afd146103435780637fc27efd14610362578063864e90e314610381575f80fd5b80634ff5401a1161013157806362faf3861161010c57806362faf386146102d5578063649865531461031c578063715018a61461032f575f80fd5b80634ff5401a146102665780635040eada1461027c5780635546e1ab146102b5575f80fd5b8063150b7a0211610161578063150b7a02146101d4578063180d7ef91461022457806322754d8b14610245575f80fd5b8062754eea1461017b5780630876f5db146101a5575b5f80fd5b348015610186575f80fd5b5061018f6104b9565b60405161019c9190613475565b60405180910390f35b3480156101b0575f80fd5b506101c46101bf36600461351b565b610787565b604051901515815260200161019c565b3480156101df575f80fd5b506101f36101ee366004613567565b6109ae565b6040517fffffffff00000000000000000000000000000000000000000000000000000000909116815260200161019c565b34801561022f575f80fd5b50610238610a5c565b60405161019c9190613640565b348015610250575f80fd5b50610259610e93565b60405161019c91906136b6565b348015610271575f80fd5b5061027a610f2b565b005b348015610287575f80fd5b506102a7610296366004613710565b600a6020525f908152604090205481565b60405190815260200161019c565b3480156102c0575f80fd5b50335f908152600a60205260409020546102a7565b3480156102e0575f80fd5b506102f46102ef36600461372b565b6110f8565b604080519485526020850193909352901515918301919091521515606082015260800161019c565b61027a61032a36600461351b565b611142565b34801561033a575f80fd5b5061027a61167c565b34801561034e575f80fd5b5061027a61035d366004613755565b61168f565b34801561036d575f80fd5b5061027a61037c36600461372b565b611bba565b34801561038c575f80fd5b5061027a611e1c565b3480156103a0575f80fd5b506103b46103af36600461372b565b611e95565b60405161019c9190613795565b3480156103cc575f80fd5b505f546040516001600160a01b03909116815260200161019c565b3480156103f2575f80fd5b5061027a61040136600461372b565b611f19565b348015610411575f80fd5b5061018f6121fb565b348015610425575f80fd5b506002546102a7565b348015610439575f80fd5b5061023861044836600461372b565b6123b2565b348015610458575f80fd5b5061046c610467366004613710565b612463565b60405161019c91906137e8565b348015610484575f80fd5b5061048d612486565b60405161019c919061381f565b3480156104a5575f80fd5b5061027a6104b4366004613710565b612497565b60605f805f6104c86004612524565b90505f5b81518110156105af575f8282815181106104e8576104e861385f565b602002602001015190505f61051e60065f846001600160a01b03166001600160a01b031681526020019081526020015f20612524565b90505f5b8151811015610599575f82828151811061053e5761053e61385f565b6020908102919091018101516001600160a01b038681165f90815260078452604080822084835290945292909220549092503391160361058657610583600188613887565b96505b50806105918161389a565b915050610522565b50505080806105a79061389a565b9150506104cc565b505f8267ffffffffffffffff8111156105ca576105ca613553565b60405190808252806020026020018201604052801561060357816020015b6105f06133c8565b8152602001906001900390816105e85790505b5090505f5b825181101561077e575f8382815181106106245761062461385f565b602002602001015190505f61065a60065f846001600160a01b03166001600160a01b031681526020019081526020015f20612524565b90505f5b8151811015610768575f82828151811061067a5761067a61385f565b6020908102919091018101516001600160a01b038681165f908152600784526040808220848352909452929092205490925033911603610755576001600160a01b038085165f908152600760209081526040808320858452825291829020825160a081018452815485168152835180850185526001830154909516855260028201548584015291820193909352600383015491810191909152600482015460608201526005909101546080820152865187908b90811061073c5761073c61385f565b602090810291909101015261075260018a613887565b98505b50806107608161389a565b91505061065e565b50505080806107769061389a565b915050610608565b50949350505050565b5f805b6001600160a01b0386165f9081526008602090815260408083208884529091529020548110156109a0576001600160a01b0386165f90815260086020908152604080832088845290915290208054829081106107e8576107e861385f565b905f5260205f20906005020160010154841015801561084a57506001600160a01b0386165f90815260086020908152604080832088845290915290208054829081106108365761083661385f565b905f5260205f209060050201600201548411155b806108e657506001600160a01b0386165f90815260086020908152604080832088845290915290208054829081106108845761088461385f565b905f5260205f2090600502016001015483101580156108e657506001600160a01b0386165f90815260086020908152604080832088845290915290208054829081106108d2576108d261385f565b905f5260205f209060050201600201548311155b8061098057506001600160a01b0386165f90815260086020908152604080832088845290915290208054829081106109205761092061385f565b905f5260205f209060050201600101548410801561098057506001600160a01b0386165f908152600860209081526040808320888452909152902080548290811061096d5761096d61385f565b905f5260205f2090600502016002015483115b1561098e575f9150506109a6565b806109988161389a565b91505061078a565b50600190505b949350505050565b5f6001600160a01b0385163014610a325760405162461bcd60e51b815260206004820152603060248201527f4e4654206d757374206265207265636569766564207468726f7567682074686560448201527f206c697374696e672070726f636573730000000000000000000000000000000060648201526084015b60405180910390fd5b507f150b7a0200000000000000000000000000000000000000000000000000000000949350505050565b60605f805f610a6b6004612524565b90505f5b8151811015610c22575f828281518110610a8b57610a8b61385f565b602002602001015190505f610ac160065f846001600160a01b03166001600160a01b031681526020019081526020015f20612524565b90505f5b8151811015610c0c575f828281518110610ae157610ae161385f565b6020908102919091018101516001600160a01b0386165f908152600883526040808220838352845280822080548251818702810187019093528083529395509193909290849084015b82821015610b90575f8481526020908190206040805160a0810182526005860290920180546001600160a01b0316835260018082015484860152600282015492840192909252600381015460608401526004015460808301529083529092019101610b2a565b5050505090505f5b8151811015610bf657336001600160a01b0316828281518110610bbd57610bbd61385f565b60200260200101515f01516001600160a01b031603610be457610be160018a613887565b98505b80610bee8161389a565b915050610b98565b5050508080610c049061389a565b915050610ac5565b5050508080610c1a9061389a565b915050610a6f565b505f8267ffffffffffffffff811115610c3d57610c3d613553565b604051908082528060200260200182016040528015610ca457816020015b610c916040518060a001604052805f6001600160a01b031681526020015f81526020015f81526020015f81526020015f81525090565b815260200190600190039081610c5b5790505b5090505f5b825181101561077e575f838281518110610cc557610cc561385f565b602002602001015190505f610cfb60065f846001600160a01b03166001600160a01b031681526020019081526020015f20612524565b90505f5b8151811015610e7d575f828281518110610d1b57610d1b61385f565b6020908102919091018101516001600160a01b0386165f908152600883526040808220838352845280822080548251818702810187019093528083529395509193909290849084015b82821015610dca575f8481526020908190206040805160a0810182526005860290920180546001600160a01b0316835260018082015484860152600282015492840192909252600381015460608401526004015460808301529083529092019101610d64565b5050505090505f5b8151811015610e6757336001600160a01b0316828281518110610df757610df761385f565b60200260200101515f01516001600160a01b031603610e5557818181518110610e2257610e2261385f565b6020026020010151888c81518110610e3c57610e3c61385f565b6020908102919091010152610e5260018c613887565b9a505b80610e5f8161389a565b915050610dd2565b5050508080610e759061389a565b915050610cff565b5050508080610e8b9061389a565b915050610ca9565b335f908152600960209081526040808320805482518185028101850190935280835260609492939192909184015b82821015610f22575f8481526020908190206040805160808101825260038602909201805483526001808201548486015260029091015460ff8082161515938501939093526101009004909116151560608301529083529092019101610ec1565b50505050905090565b5f805b335f9081526009602052604090205481101561109c57335f908152600960205260409020805442919083908110610f6757610f6761385f565b905f5260205f2090600302016001015411158015610fb85750335f908152600960205260409020805482908110610fa057610fa061385f565b5f91825260209091206002600390920201015460ff16155b8015610ffe5750335f908152600960205260409020805482908110610fdf57610fdf61385f565b905f5260205f20906003020160020160019054906101000a900460ff16155b1561108a57335f9081526009602052604090208054829081106110235761102361385f565b905f5260205f2090600302015f01548261103d9190613887565b335f9081526009602052604090208054919350600191839081106110635761106361385f565b905f5260205f20906003020160020160016101000a81548160ff0219169083151502179055505b806110948161389a565b915050610f2e565b5080156110b0576110ad3382612537565b50565b60405162461bcd60e51b815260206004820152601160248201527f4e6f7468696e6720746f2072656465656d0000000000000000000000000000006044820152606401610a29565b6009602052815f5260405f208181548110611111575f80fd5b5f91825260209091206003909102018054600182015460029092015490935090915060ff8082169161010090041684565b61114a6125fe565b6001600160a01b038481165f908152600760209081526040808320878452909152902054166111af5760405162461bcd60e51b8152602060048201526011602482015270139195081a5cc81b9bdd081b1a5cdd1959607a1b6044820152606401610a29565b4281116112245760405162461bcd60e51b815260206004820152602560248201527f52656e74616c20656e6420646174652063616e6e6f7420626520696e2074686560448201527f20706173740000000000000000000000000000000000000000000000000000006064820152608401610a29565b81158061123057504282115b6112a25760405162461bcd60e51b815260206004820152603260248201527f49662066696c6c65642c2072656e74616c20737461727420646174652063616e60448201527f6e6f7420626520696e20746865207061737400000000000000000000000000006064820152608401610a29565b8082106113175760405162461bcd60e51b815260206004820152602d60248201527f52656e74616c2073746172742064617465206d757374206265206c6f7765722060448201527f7468616e20656e642064617465000000000000000000000000000000000000006064820152608401610a29565b81156113235781611325565b425b91505f6018603c8061133786866138b2565b61134191906138c5565b61134b91906138c5565b61135591906138c5565b611360906001613887565b6001600160a01b0386165f90815260076020908152604080832088845290915290206004015490915081108015906113bd57506001600160a01b0385165f9081526007602090815260408083208784529091529020600501548111155b6114555760405162461bcd60e51b815260206004820152605d60248201527f52656e74616c20706572696f64206d757374206265206772656174657220746860448201527f616e206d696e696d756d2072656e74616c20706572696f6420616e64206c6f7760648201527f6572207468616e206d6178696d756d2072656e74616c20706572696f64000000608482015260a401610a29565b61146185858585610787565b6114d35760405162461bcd60e51b815260206004820152602360248201527f4e4654206973206e6f7420617661696c61626c65206f6e20746861742070657260448201527f696f6400000000000000000000000000000000000000000000000000000000006064820152608401610a29565b6001600160a01b0385165f90815260076020908152604080832087845290915281206003015461150390836138e4565b90508034101561157b5760405162461bcd60e51b815260206004820152602360248201527f4e6f7420656e6f7567682045544820746f20636f7665722072656e74616c206660448201527f65657300000000000000000000000000000000000000000000000000000000006064820152608401610a29565b5f60646002548361158c91906138e4565b61159691906138c5565b90505f6115a382846138b2565b6001600160a01b03808a165f9081526007602090815260408083208c8452909152812054929350916115d791168389612657565b90505f6115f56115ee5f546001600160a01b031690565b858a612657565b6001600160a01b03808c165f9081526007602090815260408083208e84528252918290208251808401909352600181015490931682526002909201549181019190915290915061164990338a8a86866126f0565b5f61165486346138b2565b90508015611666576116663382612537565b5050505050505061167660018055565b50505050565b611684612852565b61168d5f6128ab565b565b6040517f01ffc9a70000000000000000000000000000000000000000000000000000000081527fad092b5c0000000000000000000000000000000000000000000000000000000060048201526001600160a01b038616906301ffc9a790602401602060405180830381865afa15801561170a573d5f803e3d5ffd5b505050506040513d601f19601f8201168201806040525081019061172e91906138fb565b61177a5760405162461bcd60e51b815260206004820152601b60248201527f4e465420636f6e7472616374206973206e6f74204552433439303700000000006044820152606401610a29565b6001600160a01b038581165f90815260076020908152604080832088845290915290205416156117ec5760405162461bcd60e51b815260206004820152601560248201527f4e465420697320616c7265616479206c697374656400000000000000000000006044820152606401610a29565b6040517f6352211e0000000000000000000000000000000000000000000000000000000081526004810185905233906001600160a01b03871690636352211e90602401602060405180830381865afa15801561184a573d5f803e3d5ffd5b505050506040513d601f19601f8201168201806040525081019061186e919061391a565b6001600160a01b0316146118c45760405162461bcd60e51b815260206004820152601860248201527f4e6f7420746865206f776e6572206f6620746865204e465400000000000000006044820152606401610a29565b6040517fe985e9c50000000000000000000000000000000000000000000000000000000081523360048201523060248201526001600160a01b0386169063e985e9c590604401602060405180830381865afa158015611925573d5f803e3d5ffd5b505050506040513d601f19601f8201168201806040525081019061194991906138fb565b6119bb5760405162461bcd60e51b815260206004820152602c60248201527f4d61726b6574706c616365206d75737420626520617070726f766564206f6e2060448201527f4e465420636f6e747261637400000000000000000000000000000000000000006064820152608401610a29565b604051636178f8a560e11b8152600481018590525f906001600160a01b0387169063c2f1f14a90602401602060405180830381865afa158015611a00573d5f803e3d5ffd5b505050506040513d601f19601f82011682018060405250810190611a24919061391a565b6001600160a01b031614611aa2576040805162461bcd60e51b81526020600482015260248101919091527f4e465420697320616c7265616479206265696e672072656e7465642c2075736560448201527f7220726f6c65206d75737420626520617661696c61626c6520746f206c6973746064820152608401610a29565b5f8311611b175760405162461bcd60e51b815260206004820152602560248201527f52656e74616c2070726963652073686f756c642062652067726561746572207460448201527f68616e20300000000000000000000000000000000000000000000000000000006064820152608401610a29565b5f82118015611b2557505f81115b8015611b315750818110155b611b7d5760405162461bcd60e51b815260206004820152601960248201527f496e76616c69642072656e74616c20626f756e646172696573000000000000006044820152606401610a29565b611ba7336040518060400160405280886001600160a01b03168152602001878152508585856128fa565b611bb385853330612a9a565b5050505050565b6001600160a01b038281165f90815260076020908152604080832085845290915290205416611c1f5760405162461bcd60e51b8152602060048201526011602482015270139195081a5cc81b9bdd081b1a5cdd1959607a1b6044820152606401610a29565b6001600160a01b038281165f90815260076020908152604080832085845290915290205416331480611c69575033611c5e5f546001600160a01b031690565b6001600160a01b0316145b611cdb5760405162461bcd60e51b815260206004820152602160248201527f4e6f7420617574686f72697a656420746f20756e6c6973742074686973204e4660448201527f54000000000000000000000000000000000000000000000000000000000000006064820152608401610a29565b604051636178f8a560e11b8152600481018290525f906001600160a01b0384169063c2f1f14a90602401602060405180830381865afa158015611d20573d5f803e3d5ffd5b505050506040513d601f19601f82011682018060405250810190611d44919061391a565b6001600160a01b031614611dc05760405162461bcd60e51b815260206004820152602b60248201527f4e4654206973206265696e672072656e7465642c20776169742074686520656e60448201527f6420746f20756e6c6973740000000000000000000000000000000000000000006064820152608401610a29565b611dcc82823033612a9a565b611df26040518060400160405280846001600160a01b0316815260200183815250612b2c565b611e186040518060400160405280846001600160a01b0316815260200183815250612ee2565b5050565b335f908152600a6020526040902054611e775760405162461bcd60e51b815260206004820152601160248201527f4e6f7468696e6720746f2072656465656d0000000000000000000000000000006044820152606401610a29565b335f818152600a602052604081208054919055906110ad9082612537565b611e9d6133c8565b506001600160a01b038083165f908152600760209081526040808320858452825291829020825160a0810184528154851681528351808501855260018301549095168552600282015485840152918201939093526003830154918101919091526004820154606082015260059091015460808201525b92915050565b6001600160a01b038281165f90815260076020908152604080832085845290915290205416611f7e5760405162461bcd60e51b8152602060048201526011602482015270139195081a5cc81b9bdd081b1a5cdd1959607a1b6044820152606401610a29565b604051636178f8a560e11b8152600481018290525f906001600160a01b0384169063c2f1f14a90602401602060405180830381865afa158015611fc3573d5f803e3d5ffd5b505050506040513d601f19601f82011682018060405250810190611fe7919061391a565b6001600160a01b03161461203d5760405162461bcd60e51b815260206004820152601760248201527f52656e74696e6720616c726561647920737461727465640000000000000000006044820152606401610a29565b5f80612049848461304c565b915091508080156120a757506001600160a01b0384165f908152600860209081526040808320868452909152902080543391908490811061208c5761208c61385f565b5f9182526020909120600590910201546001600160a01b0316145b6120f35760405162461bcd60e51b815260206004820152601760248201527f4e6f7420796f757220626f6f6b696e6720706572696f640000000000000000006044820152606401610a29565b6001600160a01b0384165f9081526008602090815260408083208684529091529020805461214691869186913391879081106121315761213161385f565b905f5260205f20906005020160020154613145565b6001600160a01b0384165f908152600860209081526040808320868452909152902080547f4b41a9b37e2f72ef6d21e3f3c3460115c7077bdaedbbc1523a711edebf10120291908490811061219d5761219d61385f565b905f5260205f2090600502016040516121ed919081546001600160a01b03168152600182015460208201526002820154604082015260038201546060820152600490910154608082015260a00190565b60405180910390a150505050565b60605f8061220860035490565b90505f6122156004612524565b90505f8267ffffffffffffffff81111561223157612231613553565b60405190808252806020026020018201604052801561226a57816020015b6122576133c8565b81526020019060019003908161224f5790505b5090505f5b825181101561077e575f83828151811061228b5761228b61385f565b602002602001015190505f6122c160065f846001600160a01b03166001600160a01b031681526020019081526020015f20612524565b90505f5b815181101561239c575f8282815181106122e1576122e161385f565b6020908102919091018101516001600160a01b038087165f908152600784526040808220848352855290819020815160a08101835281548416815282518084018452600183015490941684526002820154848701529485019290925260038201549084015260048101546060840152600501546080830152875190925087908b9081106123705761237061385f565b602090810291909101015261238660018a613887565b98505080806123949061389a565b9150506122c5565b50505080806123aa9061389a565b91505061226f565b6001600160a01b0382165f9081526008602090815260408083208484528252808320805482518185028101850190935280835260609492939192909184015b82821015612457575f8481526020908190206040805160a0810182526005860290920180546001600160a01b03168352600180820154848601526002820154928401929092526003810154606084015260040154608083015290835290920191016123f1565b50505050905092915050565b6001600160a01b0381165f908152600660205260409020606090611f1390612524565b60606124926004612524565b905090565b61249f612852565b6001600160a01b03811661251b5760405162461bcd60e51b815260206004820152602660248201527f4f776e61626c653a206e6577206f776e657220697320746865207a65726f206160448201527f64647265737300000000000000000000000000000000000000000000000000006064820152608401610a29565b6110ad816128ab565b60605f612530836131a3565b9392505050565b5f826001600160a01b031682604051612573907f5375636365737300000000000000000000000000000000000000000000000000815260070190565b5f6040518083038185875af1925050503d805f81146125ad576040519150601f19603f3d011682016040523d82523d5f602084013e6125b2565b606091505b5050604080516001600160a01b0386168152602081018590529192507f8c8f77105ce8ee99e391fd4da140bc14a988eb4cf878b240bfed9b10ae7c6758910160405180910390a1505050565b6002600154036126505760405162461bcd60e51b815260206004820152601f60248201527f5265656e7472616e637947756172643a207265656e7472616e742063616c6c006044820152606401610a29565b6002600155565b6001600160a01b0383165f818152600960208181526040808420815160808101835288815280840188815292810186815260608201878152835460018082018655858a52878a2094516003909202909401908155945185840155905160029094018054915161ffff1990921694151561ff001916949094176101009115159190910217909255948452919052915490916109a6916138b2565b85516001600160a01b039081165f908152600860208181526040808420828c0180518652908352818520825160a0810184528c881681528085018c81528185018c8152606083018c8152608084018c8152855460018082018855968c52898c209551600590910290950180546001600160a01b031916958d1695909517855592518486015590516002840155516003830155516004909101558c51871686528484528286208251875284528286208d51909716865293835281852090518552909152909120547f14932d2f13f442970e2252339144687b78a428dbe4dc7d3d94997d5209e3f9c292916127e2916138b2565b815481106127f2576127f261385f565b905f5260205f209060050201604051612842919081546001600160a01b03168152600182015460208201526002820154604082015260038201546060820152600490910154608082015260a00190565b60405180910390a1505050505050565b5f546001600160a01b0316331461168d5760405162461bcd60e51b815260206004820181905260248201527f4f776e61626c653a2063616c6c6572206973206e6f7420746865206f776e65726044820152606401610a29565b5f80546001600160a01b038381166001600160a01b0319831681178455604051919092169283917f8be0079c531659141344cd1fd0a4f28419497f9722a3daafe3b4186f6b6457e09190a35050565b6040805160a0810182526001600160a01b03808816825282518084018452875182168152602088810180518383015281850192835284860189815260608601898152608087018981528c5187165f908152600786528981209451815293855297909220955186549086166001600160a01b03199182161787559351805160018801805491909716951694909417909455910151600284015590516003808401919091559051600483015591516005909101556129b99080546001019055565b83516001600160a01b03165f908152600660209081526040909120908501516129e291906131fc565b506129f16004855f0151613207565b5083516001600160a01b03165f9081526007602090815260408083208288015184529091529081902090517ffbc63c05d25bd3a94833dd8684d4b069dd7f0e6ebc4c92689de5fded7ebd1dc191612a8b9181546001600160a01b039081168252600183015416602082015260028201546040820152600382015460608201526004820154608082015260059091015460a082015260c00190565b60405180910390a15050505050565b6040517fb88d4fde0000000000000000000000000000000000000000000000000000000081526001600160a01b038381166004830152828116602483015260448201859052608060648301525f608483015285169063b88d4fde9060a4015b5f604051808303815f87803b158015612b10575f80fd5b505af1158015612b22573d5f803e3d5ffd5b5050505050505050565b5f5b81516001600160a01b03165f908152600860209081526040808320828601518452909152902054811015612eb25781516001600160a01b039081165f908152600760209081526040808320828701805185529083528184205485168452600983528184208751909516845260088352818420905184529091529020805483908110612bbb57612bbb61385f565b905f5260205f2090600502016003015481548110612bdb57612bdb61385f565b5f918252602080832060039092029091015484516001600160a01b0316835260088252604080842086840151855290925290822080549192600a9290919085908110612c2957612c2961385f565b5f91825260208083206005909202909101546001600160a01b0316835282019290925260400181208054909190612c61908490613887565b909155505081516001600160a01b039081165f9081526007602090815260408083208287018051855290835281842054851684526009835281842087519095168452600883528184209051845290915290208054600192919084908110612cca57612cca61385f565b905f5260205f2090600502016003015481548110612cea57612cea61385f565b5f9182526020808320600392909202909101600201805460ff19169315159390931790925580546001600160a01b0390811682526009835260408083208651909216835260088452808320868501518452909352919020805483908110612d5357612d5361385f565b905f5260205f2090600502016004015481548110612d7357612d7361385f565b5f918252602080832060039092029091015484516001600160a01b0316835260088252604080842086840151855290925290822080549192600a9290919085908110612dc157612dc161385f565b5f91825260208083206005909202909101546001600160a01b0316835282019290925260400181208054909190612df9908490613887565b909155506001905060095f612e155f546001600160a01b031690565b6001600160a01b03908116825260208083019390935260409182015f90812087519092168152600884528281208785015182529093529120805484908110612e5f57612e5f61385f565b905f5260205f2090600502016004015481548110612e7f57612e7f61385f565b5f9182526020909120600390910201600201805460ff191691151591909117905580612eaa8161389a565b915050612b2e565b5080516001600160a01b03165f90815260086020908152604080832082850151845290915281206110ad9161341e565b80516001600160a01b039081165f90815260076020818152604080842082870180518652908352818520825160a081018452815488168152835180850185526001808401548a168252600280850154838901528388019290925260038085015484880152600480860154606086015260059586015460808601528c51909b168a52978752858920945189529390955292862080546001600160a01b031990811682559281018054909316909255928101859055808401859055948501849055930191909155612fb09061321b565b81516001600160a01b03165f90815260066020908152604090912090830151612fd99190613271565b5081516001600160a01b03165f908152600660205260409020612ffb9061327c565b5f036130115761300f6004835f0151613285565b505b7f186aeb0e9f32b62bf652dfb2bb353e5709239ffb4a0a490eadace46e264d10fb816040516130409190613795565b60405180910390a15050565b5f805f5b6001600160a01b0385165f908152600860209081526040808320878452909152902054811015613136576001600160a01b0385165f90815260086020908152604080832087845290915290208054429190839081106130b1576130b161385f565b905f5260205f209060050201600101541115801561311457506001600160a01b0385165f90815260086020908152604080832087845290915290208054429190839081106131015761310161385f565b905f5260205f2090600502016002015410155b156131245791506001905061313e565b8061312e8161389a565b915050613050565b505f80915091505b9250929050565b6040517fe030565e000000000000000000000000000000000000000000000000000000008152600481018490526001600160a01b03838116602483015267ffffffffffffffff8316604483015285169063e030565e90606401612af9565b6060815f018054806020026020016040519081016040528092919081815260200182805480156131f057602002820191905f5260205f20905b8154815260200190600101908083116131dc575b50505050509050919050565b5f6125308383613299565b5f612530836001600160a01b038416613299565b80548061326a5760405162461bcd60e51b815260206004820152601b60248201527f436f756e7465723a2064656372656d656e74206f766572666c6f7700000000006044820152606401610a29565b5f19019055565b5f61253083836132e5565b5f611f13825490565b5f612530836001600160a01b0384166132e5565b5f8181526001830160205260408120546132de57508154600181810184555f848152602080822090930184905584548482528286019093526040902091909155611f13565b505f611f13565b5f81815260018301602052604081205480156133bf575f6133076001836138b2565b85549091505f9061331a906001906138b2565b9050818114613379575f865f0182815481106133385761333861385f565b905f5260205f200154905080875f0184815481106133585761335861385f565b5f918252602080832090910192909255918252600188019052604090208390555b855486908061338a5761338a613935565b600190038181905f5260205f20015f90559055856001015f8681526020019081526020015f205f905560019350505050611f13565b5f915050611f13565b6040518060a001604052805f6001600160a01b0316815260200161340660405180604001604052805f6001600160a01b031681526020015f81525090565b81526020015f81526020015f81526020015f81525090565b5080545f8255600502905f5260205f20908101906110ad91905b808211156134715780546001600160a01b03191681555f6001820181905560028201819055600382018190556004820155600501613438565b5090565b602080825282518282018190525f9190848201906040850190845b818110156134fb576134e88385516001600160a01b0380825116835260208201518181511660208501526020810151604085015250506040810151606083015260608101516080830152608081015160a08301525050565b9284019260c09290920191600101613490565b50909695505050505050565b6001600160a01b03811681146110ad575f80fd5b5f805f806080858703121561352e575f80fd5b843561353981613507565b966020860135965060408601359560600135945092505050565b634e487b7160e01b5f52604160045260245ffd5b5f805f806080858703121561357a575f80fd5b843561358581613507565b9350602085013561359581613507565b925060408501359150606085013567ffffffffffffffff808211156135b8575f80fd5b818701915087601f8301126135cb575f80fd5b8135818111156135dd576135dd613553565b604051601f8201601f19908116603f0116810190838211818310171561360557613605613553565b816040528281528a602084870101111561361d575f80fd5b826020860160208301375f60208483010152809550505050505092959194509250565b602080825282518282018190525f919060409081850190868401855b828110156136a957815180516001600160a01b0316855286810151878601528581015186860152606080820151908601526080908101519085015260a0909301929085019060010161365c565b5091979650505050505050565b602080825282518282018190525f919060409081850190868401855b828110156136a957815180518552868101518786015285810151151586860152606090810151151590850152608090930192908501906001016136d2565b5f60208284031215613720575f80fd5b813561253081613507565b5f806040838503121561373c575f80fd5b823561374781613507565b946020939093013593505050565b5f805f805f60a08688031215613769575f80fd5b853561377481613507565b97602087013597506040870135966060810135965060800135945092505050565b60c08101611f1382846001600160a01b0380825116835260208201518181511660208501526020810151604085015250506040810151606083015260608101516080830152608081015160a08301525050565b602080825282518282018190525f9190848201906040850190845b818110156134fb57835183529284019291840191600101613803565b602080825282518282018190525f9190848201906040850190845b818110156134fb5783516001600160a01b03168352928401929184019160010161383a565b634e487b7160e01b5f52603260045260245ffd5b634e487b7160e01b5f52601160045260245ffd5b80820180821115611f1357611f13613873565b5f600182016138ab576138ab613873565b5060010190565b81810381811115611f1357611f13613873565b5f826138df57634e487b7160e01b5f52601260045260245ffd5b500490565b8082028115828204841417611f1357611f13613873565b5f6020828403121561390b575f80fd5b81518015158114612530575f80fd5b5f6020828403121561392a575f80fd5b815161253081613507565b634e487b7160e01b5f52603160045260245ffdfea2646970667358221220b87e026611c3b6b9b23a71cd15c0dacb7c9811c33a74d25a81a27d5d57e1898c64736f6c63430008140033",
  "linkReferences": {},
  "deployedLinkReferences": {}
}