{
  "_format": "hh-sol-artifact-1",
  "contractName": "RentableNFTs",
  "sourceName": "contracts/RentableNFTs.sol",
  "abi": [
    {
      "inputs": [],
      "stateMutability": "nonpayable",
      "type": "constructor"
    },
    {
      "anonymous": false,
      "inputs": [
        {
          "indexed": true,
          "internalType": "address",
          "name": "owner",
          "type": "address"
        },
        {
          "indexed": true,
          "internalType": "address",
          "name": "approved",
          "type": "address"
        },
        {
          "indexed": true,
          "internalType": "uint256",
          "name": "tokenId",
          "type": "uint256"
        }
      ],
      "name": "Approval",
      "type": "event"
    },
    {
      "anonymous": false,
      "inputs": [
        {
          "indexed": true,
          "internalType": "address",
          "name": "owner",
          "type": "address"
        },
        {
          "indexed": true,
          "internalType": "address",
          "name": "operator",
          "type": "address"
        },
        {
          "indexed": false,
          "internalType": "bool",
          "name": "approved",
          "type": "bool"
        }
      ],
      "name": "ApprovalForAll",
      "type": "event"
    },
    {
      "anonymous": false,
      "inputs": [
        {
          "indexed": false,
          "internalType": "uint256",
          "name": "_fromTokenId",
          "type": "uint256"
        },
        {
          "indexed": false,
          "internalType": "uint256",
          "name": "_toTokenId",
          "type": "uint256"
        }
      ],
      "name": "BatchMetadataUpdate",
      "type": "event"
    },
    {
      "anonymous": false,
      "inputs": [
        {
          "indexed": false,
          "internalType": "uint256",
          "name": "_tokenId",
          "type": "uint256"
        }
      ],
      "name": "MetadataUpdate",
      "type": "event"
    },
    {
      "anonymous": false,
      "inputs": [
        {
          "indexed": true,
          "internalType": "address",
          "name": "from",
          "type": "address"
        },
        {
          "indexed": true,
          "internalType": "address",
          "name": "to",
          "type": "address"
        },
        {
          "indexed": true,
          "internalType": "uint256",
          "name": "tokenId",
          "type": "uint256"
        }
      ],
      "name": "Transfer",
      "type": "event"
    },
    {
      "anonymous": false,
      "inputs": [
        {
          "indexed": true,
          "internalType": "uint256",
          "name": "tokenId",
          "type": "uint256"
        },
        {
          "indexed": true,
          "internalType": "address",
          "name": "user",
          "type": "address"
        },
        {
          "indexed": false,
          "internalType": "uint64",
          "name": "expires",
          "type": "uint64"
        }
      ],
      "name": "UpdateUser",
      "type": "event"
    },
    {
      "inputs": [
        {
          "internalType": "address",
          "name": "to",
          "type": "address"
        },
        {
          "internalType": "uint256",
          "name": "tokenId",
          "type": "uint256"
        }
      ],
      "name": "approve",
      "outputs": [],
      "stateMutability": "nonpayable",
      "type": "function"
    },
    {
      "inputs": [
        {
          "internalType": "address",
          "name": "owner",
          "type": "address"
        }
      ],
      "name": "balanceOf",
      "outputs": [
        {
          "internalType": "uint256",
          "name": "",
          "type": "uint256"
        }
      ],
      "stateMutability": "view",
      "type": "function"
    },
    {
      "inputs": [
        {
          "internalType": "uint256",
          "name": "tokenId",
          "type": "uint256"
        }
      ],
      "name": "getApproved",
      "outputs": [
        {
          "internalType": "address",
          "name": "",
          "type": "address"
        }
      ],
      "stateMutability": "view",
      "type": "function"
    },
    {
      "inputs": [],
      "name": "getMinted",
      "outputs": [
        {
          "internalType": "uint256",
          "name": "",
          "type": "uint256"
        }
      ],
      "stateMutability": "view",
      "type": "function"
    },
    {
      "inputs": [
        {
          "internalType": "address",
          "name": "owner",
          "type": "address"
        },
        {
          "internalType": "address",
          "name": "operator",
          "type": "address"
        }
      ],
      "name": "isApprovedForAll",
      "outputs": [
        {
          "internalType": "bool",
          "name": "",
          "type": "bool"
        }
      ],
      "stateMutability": "view",
      "type": "function"
    },
    {
      "inputs": [
        {
          "internalType": "string",
          "name": "_tokenURI",
          "type": "string"
        }
      ],
      "name": "mint",
      "outputs": [],
      "stateMutability": "nonpayable",
      "type": "function"
    },
    {
      "inputs": [],
      "name": "name",
      "outputs": [
        {
          "internalType": "string",
          "name": "",
          "type": "string"
        }
      ],
      "stateMutability": "view",
      "type": "function"
    },
    {
      "inputs": [
        {
          "internalType": "uint256",
          "name": "tokenId",
          "type": "uint256"
        }
      ],
      "name": "ownerOf",
      "outputs": [
        {
          "internalType": "address",
          "name": "",
          "type": "address"
        }
      ],
      "stateMutability": "view",
      "type": "function"
    },
    {
      "inputs": [
        {
          "internalType": "address",
          "name": "from",
          "type": "address"
        },
        {
          "internalType": "address",
          "name": "to",
          "type": "address"
        },
        {
          "internalType": "uint256",
          "name": "tokenId",
          "type": "uint256"
        }
      ],
      "name": "safeTransferFrom",
      "outputs": [],
      "stateMutability": "nonpayable",
      "type": "function"
    },
    {
      "inputs": [
        {
          "internalType": "address",
          "name": "from",
          "type": "address"
        },
        {
          "internalType": "address",
          "name": "to",
          "type": "address"
        },
        {
          "internalType": "uint256",
          "name": "tokenId",
          "type": "uint256"
        },
        {
          "internalType": "bytes",
          "name": "data",
          "type": "bytes"
        }
      ],
      "name": "safeTransferFrom",
      "outputs": [],
      "stateMutability": "nonpayable",
      "type": "function"
    },
    {
      "inputs": [
        {
          "internalType": "address",
          "name": "operator",
          "type": "address"
        },
        {
          "internalType": "bool",
          "name": "approved",
          "type": "bool"
        }
      ],
      "name": "setApprovalForAll",
      "outputs": [],
      "stateMutability": "nonpayable",
      "type": "function"
    },
    {
      "inputs": [
        {
          "internalType": "uint256",
          "name": "tokenId",
          "type": "uint256"
        },
        {
          "internalType": "address",
          "name": "user",
          "type": "address"
        },
        {
          "internalType": "uint64",
          "name": "expires",
          "type": "uint64"
        }
      ],
      "name": "setUser",
      "outputs": [],
      "stateMutability": "nonpayable",
      "type": "function"
    },
    {
      "inputs": [
        {
          "internalType": "bytes4",
          "name": "interfaceId",
          "type": "bytes4"
        }
      ],
      "name": "supportsInterface",
      "outputs": [
        {
          "internalType": "bool",
          "name": "",
          "type": "bool"
        }
      ],
      "stateMutability": "view",
      "type": "function"
    },
    {
      "inputs": [],
      "name": "symbol",
      "outputs": [
        {
          "internalType": "string",
          "name": "",
          "type": "string"
        }
      ],
      "stateMutability": "view",
      "type": "function"
    },
    {
      "inputs": [
        {
          "internalType": "uint256",
          "name": "tokenId",
          "type": "uint256"
        }
      ],
      "name": "tokenURI",
      "outputs": [
        {
          "internalType": "string",
          "name": "",
          "type": "string"
        }
      ],
      "stateMutability": "view",
      "type": "function"
    },
    {
      "inputs": [
        {
          "internalType": "address",
          "name": "from",
          "type": "address"
        },
        {
          "internalType": "address",
          "name": "to",
          "type": "address"
        },
        {
          "internalType": "uint256",
          "name": "tokenId",
          "type": "uint256"
        }
      ],
      "name": "transferFrom",
      "outputs": [],
      "stateMutability": "nonpayable",
      "type": "function"
    },
    {
      "inputs": [
        {
          "internalType": "uint256",
          "name": "tokenId",
          "type": "uint256"
        }
      ],
      "name": "userExpires",
      "outputs": [
        {
          "internalType": "uint256",
          "name": "",
          "type": "uint256"
        }
      ],
      "stateMutability": "view",
      "type": "function"
    },
    {
      "inputs": [
        {
          "internalType": "uint256",
          "name": "tokenId",
          "type": "uint256"
        }
      ],
      "name": "userOf",
      "outputs": [
        {
          "internalType": "address",
          "name": "",
          "type": "address"
        }
      ],
      "stateMutability": "view",
      "type": "function"
    }
  ],
  "bytecode": "0x608060405234801562000010575f80fd5b506040518060400160405280600c81526020016b52656e7461626c654e46547360a01b815250604051806040016040528060048152602001631493919560e21b8152508181815f90816200006591906200011f565b5060016200007482826200011f565b5050505050620001e7565b634e487b7160e01b5f52604160045260245ffd5b600181811c90821680620000a857607f821691505b602082108103620000c757634e487b7160e01b5f52602260045260245ffd5b50919050565b601f8211156200011a575f81815260208120601f850160051c81016020861015620000f55750805b601f850160051c820191505b81811015620001165782815560010162000101565b5050505b505050565b81516001600160401b038111156200013b576200013b6200007f565b62000153816200014c845462000093565b84620000cd565b602080601f83116001811462000189575f8415620001715750858301515b5f19600386901b1c1916600185901b17855562000116565b5f85815260208120601f198616915b82811015620001b95788860151825594840194600190910190840162000198565b5085821015620001d757878501515f19600388901b60f8161c191681555b5050505050600190811b01905550565b611b6180620001f55f395ff3fe608060405234801561000f575f80fd5b506004361061012f575f3560e01c806395d89b41116100ad578063c2f1f14a1161007d578063d85d3d2711610063578063d85d3d2714610296578063e030565e146102a9578063e985e9c5146102bc575f80fd5b8063c2f1f14a14610270578063c87b56dd14610283575f80fd5b806395d89b411461023a578063a22cb46514610242578063ac72200d14610255578063b88d4fde1461025d575f80fd5b806323b872dd116101025780636352211e116100e85780636352211e146101d657806370a08231146101e95780638fc88c481461020a575f80fd5b806323b872dd146101b057806342842e0e146101c3575f80fd5b806301ffc9a71461013357806306fdde031461015b578063081812fc14610170578063095ea7b31461019b575b5f80fd5b61014661014136600461164f565b6102f7565b60405190151581526020015b60405180910390f35b61016361033a565b60405161015291906116b7565b61018361017e3660046116c9565b6103c9565b6040516001600160a01b039091168152602001610152565b6101ae6101a93660046116f6565b6103ee565b005b6101ae6101be36600461171e565b610523565b6101ae6101d136600461171e565b61059a565b6101836101e43660046116c9565b6105b4565b6101fc6101f7366004611757565b610618565b604051908152602001610152565b6101fc6102183660046116c9565b5f90815260076020526040902054600160a01b900467ffffffffffffffff1690565b6101636106b0565b6101ae610250366004611770565b6106bf565b6101fc6106ce565b6101ae61026b366004611830565b6106dd565b61018361027e3660046116c9565b61075b565b6101636102913660046116c9565b6107a8565b6101ae6102a43660046118a7565b6108b2565b6101ae6102b73660046118ec565b6108e0565b6101466102ca366004611935565b6001600160a01b039182165f90815260056020908152604080832093909416825291909152205460ff1690565b5f6001600160e01b031982167fad092b5c0000000000000000000000000000000000000000000000000000000014806103345750610334826109dd565b92915050565b60605f805461034890611966565b80601f016020809104026020016040519081016040528092919081815260200182805461037490611966565b80156103bf5780601f10610396576101008083540402835291602001916103bf565b820191905f5260205f20905b8154815290600101906020018083116103a257829003601f168201915b5050505050905090565b5f6103d382610a1a565b505f908152600460205260409020546001600160a01b031690565b5f6103f8826105b4565b9050806001600160a01b0316836001600160a01b0316036104865760405162461bcd60e51b815260206004820152602160248201527f4552433732313a20617070726f76616c20746f2063757272656e74206f776e6560448201527f720000000000000000000000000000000000000000000000000000000000000060648201526084015b60405180910390fd5b336001600160a01b03821614806104a257506104a281336102ca565b6105145760405162461bcd60e51b815260206004820152603d60248201527f4552433732313a20617070726f76652063616c6c6572206973206e6f7420746f60448201527f6b656e206f776e6572206f7220617070726f76656420666f7220616c6c000000606482015260840161047d565b61051e8383610a80565b505050565b61052d3382610afa565b61058f5760405162461bcd60e51b815260206004820152602d60248201527f4552433732313a2063616c6c6572206973206e6f7420746f6b656e206f776e6560448201526c1c881bdc88185c1c1c9bdd9959609a1b606482015260840161047d565b61051e838383610b76565b61051e83838360405180602001604052805f8152506106dd565b5f818152600260205260408120546001600160a01b0316806103345760405162461bcd60e51b815260206004820152601860248201527f4552433732313a20696e76616c696420746f6b656e2049440000000000000000604482015260640161047d565b5f6001600160a01b0382166106955760405162461bcd60e51b815260206004820152602960248201527f4552433732313a2061646472657373207a65726f206973206e6f74206120766160448201527f6c6964206f776e65720000000000000000000000000000000000000000000000606482015260840161047d565b506001600160a01b03165f9081526003602052604090205490565b60606001805461034890611966565b6106ca338383610d87565b5050565b5f6106d860085490565b905090565b6106e73383610afa565b6107495760405162461bcd60e51b815260206004820152602d60248201527f4552433732313a2063616c6c6572206973206e6f7420746f6b656e206f776e6560448201526c1c881bdc88185c1c1c9bdd9959609a1b606482015260840161047d565b61075584848484610e54565b50505050565b5f8181526007602052604081205442600160a01b90910467ffffffffffffffff161061079c57505f908152600760205260409020546001600160a01b031690565b505f919050565b919050565b60606107b382610a1a565b5f82815260066020526040812080546107cb90611966565b80601f01602080910402602001604051908101604052809291908181526020018280546107f790611966565b80156108425780601f1061081957610100808354040283529160200191610842565b820191905f5260205f20905b81548152906001019060200180831161082557829003601f168201915b505050505090505f61085e60408051602081019091525f815290565b905080515f0361086f575092915050565b8151156108a157808260405160200161088992919061199e565b60405160208183030381529060405292505050919050565b6108aa84610ed2565b949350505050565b6108c0600880546001019055565b5f6108ca60085490565b90506108d63382610f42565b6106ca8183610f5b565b6108ea3384610afa565b61095c5760405162461bcd60e51b815260206004820152603160248201527f4552433732313a207472616e736665722063616c6c6572206973206e6f74206f60448201527f776e6572206e6f7220617070726f766564000000000000000000000000000000606482015260840161047d565b5f8381526007602090815260409182902080546001600160a01b0386166001600160e01b03199091168117600160a01b67ffffffffffffffff871690810291909117835593519384529092909186917f4e06b4e7000e659094299b3533b47b6aa8ad048e95e872d23d1f4ee55af89cfe91015b60405180910390a350505050565b5f6001600160e01b031982167f49064906000000000000000000000000000000000000000000000000000000001480610334575061033482611033565b5f818152600260205260409020546001600160a01b0316610a7d5760405162461bcd60e51b815260206004820152601860248201527f4552433732313a20696e76616c696420746f6b656e2049440000000000000000604482015260640161047d565b50565b5f818152600460205260409020805473ffffffffffffffffffffffffffffffffffffffff19166001600160a01b0384169081179091558190610ac1826105b4565b6001600160a01b03167f8c5be1e5ebec7d5bd14f71427d1e84f3dd0314c0f7b2291e5b200ac8c7c3b92560405160405180910390a45050565b5f80610b05836105b4565b9050806001600160a01b0316846001600160a01b03161480610b4b57506001600160a01b038082165f9081526005602090815260408083209388168352929052205460ff165b806108aa5750836001600160a01b0316610b64846103c9565b6001600160a01b031614949350505050565b826001600160a01b0316610b89826105b4565b6001600160a01b031614610bed5760405162461bcd60e51b815260206004820152602560248201527f4552433732313a207472616e736665722066726f6d20696e636f72726563742060448201526437bbb732b960d91b606482015260840161047d565b6001600160a01b038216610c685760405162461bcd60e51b8152602060048201526024808201527f4552433732313a207472616e7366657220746f20746865207a65726f2061646460448201527f7265737300000000000000000000000000000000000000000000000000000000606482015260840161047d565b610c7583838360016110cd565b826001600160a01b0316610c88826105b4565b6001600160a01b031614610cec5760405162461bcd60e51b815260206004820152602560248201527f4552433732313a207472616e736665722066726f6d20696e636f72726563742060448201526437bbb732b960d91b606482015260840161047d565b5f818152600460209081526040808320805473ffffffffffffffffffffffffffffffffffffffff199081169091556001600160a01b038781168086526003855283862080545f1901905590871680865283862080546001019055868652600290945282852080549092168417909155905184937fddf252ad1be2c89b69c2b068fc378daa952ba7f163c4a11628f55a4df523b3ef91a4505050565b816001600160a01b0316836001600160a01b031603610de85760405162461bcd60e51b815260206004820152601960248201527f4552433732313a20617070726f766520746f2063616c6c657200000000000000604482015260640161047d565b6001600160a01b038381165f81815260056020908152604080832094871680845294825291829020805460ff191686151590811790915591519182527f17307eab39ab6107e8899845ad3d59bd9653f200f220920489ca2b5937696c31910160405180910390a3505050565b610e5f848484610b76565b610e6b84848484611155565b6107555760405162461bcd60e51b815260206004820152603260248201527f4552433732313a207472616e7366657220746f206e6f6e20455243373231526560448201527131b2b4bb32b91034b6b83632b6b2b73a32b960711b606482015260840161047d565b6060610edd82610a1a565b5f610ef260408051602081019091525f815290565b90505f815111610f105760405180602001604052805f815250610f3b565b80610f1a8461129d565b604051602001610f2b92919061199e565b6040516020818303038152906040525b9392505050565b6106ca828260405180602001604052805f81525061133a565b5f828152600260205260409020546001600160a01b0316610fe45760405162461bcd60e51b815260206004820152602e60248201527f45524337323155524953746f726167653a2055524920736574206f66206e6f6e60448201527f6578697374656e7420746f6b656e000000000000000000000000000000000000606482015260840161047d565b5f828152600660205260409020610ffb8282611a19565b506040518281527ff8e1a15aba9398e019f0b49df1a4fde98ee17ae345cb5f6b5e2c27f5033e8ce79060200160405180910390a15050565b5f6001600160e01b031982167f80ac58cd00000000000000000000000000000000000000000000000000000000148061109557506001600160e01b031982167f5b5e139f00000000000000000000000000000000000000000000000000000000145b8061033457507f01ffc9a7000000000000000000000000000000000000000000000000000000006001600160e01b0319831614610334565b826001600160a01b0316846001600160a01b03161415801561110457505f828152600760205260409020546001600160a01b031615155b15610755575f82815260076020908152604080832080546001600160e01b03191690555182815284917f4e06b4e7000e659094299b3533b47b6aa8ad048e95e872d23d1f4ee55af89cfe91016109cf565b5f6001600160a01b0384163b1561129257604051630a85bd0160e11b81526001600160a01b0385169063150b7a0290611198903390899088908890600401611ad5565b6020604051808303815f875af19250505080156111d2575060408051601f3d908101601f191682019092526111cf91810190611b10565b60015b611278573d8080156111ff576040519150601f19603f3d011682016040523d82523d5f602084013e611204565b606091505b5080515f036112705760405162461bcd60e51b815260206004820152603260248201527f4552433732313a207472616e7366657220746f206e6f6e20455243373231526560448201527131b2b4bb32b91034b6b83632b6b2b73a32b960711b606482015260840161047d565b805181602001fd5b6001600160e01b031916630a85bd0160e11b1490506108aa565b506001949350505050565b60605f6112a9836113b7565b60010190505f8167ffffffffffffffff8111156112c8576112c86117a9565b6040519080825280601f01601f1916602001820160405280156112f2576020820181803683370190505b5090508181016020015b5f19017f3031323334353637383961626364656600000000000000000000000000000000600a86061a8153600a85049450846112fc57509392505050565b6113448383611498565b6113505f848484611155565b61051e5760405162461bcd60e51b815260206004820152603260248201527f4552433732313a207472616e7366657220746f206e6f6e20455243373231526560448201527131b2b4bb32b91034b6b83632b6b2b73a32b960711b606482015260840161047d565b5f807a184f03e93ff9f4daa797ed6e38ed64bf6a1f01000000000000000083106113ff577a184f03e93ff9f4daa797ed6e38ed64bf6a1f010000000000000000830492506040015b6d04ee2d6d415b85acef8100000000831061142b576d04ee2d6d415b85acef8100000000830492506020015b662386f26fc10000831061144957662386f26fc10000830492506010015b6305f5e1008310611461576305f5e100830492506008015b612710831061147557612710830492506004015b60648310611487576064830492506002015b600a83106103345760010192915050565b6001600160a01b0382166114ee5760405162461bcd60e51b815260206004820181905260248201527f4552433732313a206d696e7420746f20746865207a65726f2061646472657373604482015260640161047d565b5f818152600260205260409020546001600160a01b0316156115525760405162461bcd60e51b815260206004820152601c60248201527f4552433732313a20746f6b656e20616c7265616479206d696e74656400000000604482015260640161047d565b61155f5f838360016110cd565b5f818152600260205260409020546001600160a01b0316156115c35760405162461bcd60e51b815260206004820152601c60248201527f4552433732313a20746f6b656e20616c7265616479206d696e74656400000000604482015260640161047d565b6001600160a01b0382165f818152600360209081526040808320805460010190558483526002909152808220805473ffffffffffffffffffffffffffffffffffffffff19168417905551839291907fddf252ad1be2c89b69c2b068fc378daa952ba7f163c4a11628f55a4df523b3ef908290a45050565b6001600160e01b031981168114610a7d575f80fd5b5f6020828403121561165f575f80fd5b8135610f3b8161163a565b5f5b8381101561168457818101518382015260200161166c565b50505f910152565b5f81518084526116a381602086016020860161166a565b601f01601f19169290920160200192915050565b602081525f610f3b602083018461168c565b5f602082840312156116d9575f80fd5b5035919050565b80356001600160a01b03811681146107a3575f80fd5b5f8060408385031215611707575f80fd5b611710836116e0565b946020939093013593505050565b5f805f60608486031215611730575f80fd5b611739846116e0565b9250611747602085016116e0565b9150604084013590509250925092565b5f60208284031215611767575f80fd5b610f3b826116e0565b5f8060408385031215611781575f80fd5b61178a836116e0565b91506020830135801515811461179e575f80fd5b809150509250929050565b634e487b7160e01b5f52604160045260245ffd5b5f67ffffffffffffffff808411156117d7576117d76117a9565b604051601f8501601f19908116603f011681019082821181831017156117ff576117ff6117a9565b81604052809350858152868686011115611817575f80fd5b858560208301375f602087830101525050509392505050565b5f805f8060808587031215611843575f80fd5b61184c856116e0565b935061185a602086016116e0565b925060408501359150606085013567ffffffffffffffff81111561187c575f80fd5b8501601f8101871361188c575f80fd5b61189b878235602084016117bd565b91505092959194509250565b5f602082840312156118b7575f80fd5b813567ffffffffffffffff8111156118cd575f80fd5b8201601f810184136118dd575f80fd5b6108aa848235602084016117bd565b5f805f606084860312156118fe575f80fd5b8335925061190e602085016116e0565b9150604084013567ffffffffffffffff8116811461192a575f80fd5b809150509250925092565b5f8060408385031215611946575f80fd5b61194f836116e0565b915061195d602084016116e0565b90509250929050565b600181811c9082168061197a57607f821691505b60208210810361199857634e487b7160e01b5f52602260045260245ffd5b50919050565b5f83516119af81846020880161166a565b8351908301906119c381836020880161166a565b01949350505050565b601f82111561051e575f81815260208120601f850160051c810160208610156119f25750805b601f850160051c820191505b81811015611a11578281556001016119fe565b505050505050565b815167ffffffffffffffff811115611a3357611a336117a9565b611a4781611a418454611966565b846119cc565b602080601f831160018114611a7a575f8415611a635750858301515b5f19600386901b1c1916600185901b178555611a11565b5f85815260208120601f198616915b82811015611aa857888601518255948401946001909101908401611a89565b5085821015611ac557878501515f19600388901b60f8161c191681555b5050505050600190811b01905550565b5f6001600160a01b03808716835280861660208401525083604083015260806060830152611b06608083018461168c565b9695505050505050565b5f60208284031215611b20575f80fd5b8151610f3b8161163a56fea2646970667358221220c266929cba5a0d3df097fcf6a60067bbc81d3fe5fa4271761bbb1812fbdba1c764736f6c63430008140033",
  "linkReferences": {},
  "deployedLinkReferences": {}
}